{
  "contractName": "BackoFactory",
  "abi": [
    {
      "anonymous": false,
      "inputs": [
        {
          "indexed": false,
          "internalType": "string",
          "name": "_backoName",
          "type": "string"
        },
        {
          "indexed": false,
          "internalType": "string",
          "name": "_name",
          "type": "string"
        },
        {
          "indexed": false,
          "internalType": "string",
          "name": "_symbol",
          "type": "string"
        },
        {
          "indexed": false,
          "internalType": "address",
          "name": "_creator",
          "type": "address"
        },
        {
          "indexed": false,
          "internalType": "address",
          "name": "backo",
          "type": "address"
        },
        {
          "indexed": false,
          "internalType": "uint256",
          "name": "",
          "type": "uint256"
        }
      ],
      "name": "BackoCreated",
      "type": "event"
    },
    {
      "anonymous": false,
      "inputs": [
        {
          "indexed": true,
          "internalType": "address",
          "name": "previousOwner",
          "type": "address"
        },
        {
          "indexed": true,
          "internalType": "address",
          "name": "newOwner",
          "type": "address"
        }
      ],
      "name": "OwnershipTransferred",
      "type": "event"
    },
    {
      "anonymous": false,
      "inputs": [
        {
          "indexed": false,
          "internalType": "bool",
          "name": "_stopped",
          "type": "bool"
        }
      ],
      "name": "StoppedSet",
      "type": "event"
    },
    {
      "inputs": [
        {
          "internalType": "uint256",
          "name": "",
          "type": "uint256"
        }
      ],
      "name": "allBackos",
      "outputs": [
        {
          "internalType": "address",
          "name": "",
          "type": "address"
        }
      ],
      "stateMutability": "view",
      "type": "function",
      "constant": true
    },
    {
      "inputs": [],
      "name": "owner",
      "outputs": [
        {
          "internalType": "address",
          "name": "",
          "type": "address"
        }
      ],
      "stateMutability": "view",
      "type": "function",
      "constant": true
    },
    {
      "inputs": [],
      "name": "renounceOwnership",
      "outputs": [],
      "stateMutability": "nonpayable",
      "type": "function"
    },
    {
      "inputs": [],
      "name": "stopped",
      "outputs": [
        {
          "internalType": "bool",
          "name": "",
          "type": "bool"
        }
      ],
      "stateMutability": "view",
      "type": "function",
      "constant": true
    },
    {
      "inputs": [
        {
          "internalType": "address",
          "name": "newOwner",
          "type": "address"
        }
      ],
      "name": "transferOwnership",
      "outputs": [],
      "stateMutability": "nonpayable",
      "type": "function"
    },
    {
      "inputs": [
        {
          "internalType": "string",
          "name": "_backoName",
          "type": "string"
        },
        {
          "internalType": "string",
          "name": "_name",
          "type": "string"
        },
        {
          "internalType": "string",
          "name": "_symbol",
          "type": "string"
        },
        {
          "internalType": "uint256",
          "name": "_numberOfLevels",
          "type": "uint256"
        },
        {
          "internalType": "uint256[]",
          "name": "_levelAmounts",
          "type": "uint256[]"
        },
        {
          "internalType": "uint256[]",
          "name": "_levelRewards",
          "type": "uint256[]"
        },
        {
          "components": [
            {
              "internalType": "string",
              "name": "profileImageHash",
              "type": "string"
            },
            {
              "internalType": "string",
              "name": "backoDetailsHash",
              "type": "string"
            }
          ],
          "internalType": "struct IBacko.IpfsDataHashes",
          "name": "_ipfsDataHashes",
          "type": "tuple"
        }
      ],
      "name": "createBacko",
      "outputs": [
        {
          "internalType": "address",
          "name": "backo",
          "type": "address"
        }
      ],
      "stateMutability": "nonpayable",
      "type": "function"
    },
    {
      "inputs": [
        {
          "internalType": "bool",
          "name": "_stopped",
          "type": "bool"
        }
      ],
      "name": "setStopped",
      "outputs": [],
      "stateMutability": "nonpayable",
      "type": "function"
    }
  ],
  "bytecode": "0x60806040526002805460ff1916905534801561001a57600080fd5b506000610025610074565b600080546001600160a01b0319166001600160a01b0383169081178255604051929350917f8be0079c531659141344cd1fd0a4f28419497f9722a3daafe3b4186f6b6457e0908290a350610078565b3390565b6135b2806100876000396000f3fe608060405234801561001057600080fd5b506004361061007d5760003560e01c80638da5cb5b1161005b5780638da5cb5b146100ca5780639d10e1a6146100d2578063d50e829e146100e5578063f2fde38b146100f85761007d565b80631a52efb314610082578063715018a6146100ab57806375f12b21146100b5575b600080fd5b61009561009036600461075e565b61010b565b6040516100a29190610804565b60405180910390f35b6100b3610132565b005b6100bd6101ba565b6040516100a29190610818565b6100956101c3565b6100956100e0366004610665565b6101d2565b6100b36100f3366004610645565b610379565b6100b3610106366004610617565b6103f7565b6001818154811061011857fe5b6000918252602090912001546001600160a01b0316905081565b61013a6104ad565b6000546001600160a01b039081169116146101705760405162461bcd60e51b8152600401610167906109e6565b60405180910390fd5b600080546040516001600160a01b03909116907f8be0079c531659141344cd1fd0a4f28419497f9722a3daafe3b4186f6b6457e0908390a3600080546001600160a01b0319169055565b60025460ff1681565b6000546001600160a01b031690565b6000848451146101f45760405162461bcd60e51b815260040161016790610989565b848351146102145760405162461bcd60e51b815260040161016790610a1b565b606060405180602001610226906104b1565b601f1982820381018352601f909101166040819052600154919250600091610250916020016107fb565b604051602081830303815290604052805190602001209050808251602084016000f560405163b924956f60e01b81529093506001600160a01b0384169063b924956f906102af908d908d908d9033908e908e908e908e90600401610882565b600060405180830381600087803b1580156102c957600080fd5b505af11580156102dd573d6000803e3d6000fd5b505060018054808201825560008290527fb10e2d527612073b26eecdfd717e6a320cf44b4afac2b0732d9fcbe2b7fa0cf60180546001600160a01b0319166001600160a01b038816179055546040517f9db9e2574e1aa6c84bab28d6dd5786456959ac7b2490f81f97951a19e31191e9935061036492508d918d918d9133918a9190610823565b60405180910390a15050979650505050505050565b6103816104ad565b6000546001600160a01b039081169116146103ae5760405162461bcd60e51b8152600401610167906109e6565b6002805460ff19168215151790556040517f9e3262db745ff40b99e835599dd91acec118d5f0a23314b826e7b8960e78beb2906103ec908390610818565b60405180910390a150565b6103ff6104ad565b6000546001600160a01b0390811691161461042c5760405162461bcd60e51b8152600401610167906109e6565b6001600160a01b0381166104525760405162461bcd60e51b815260040161016790610943565b600080546040516001600160a01b03808516939216917f8be0079c531659141344cd1fd0a4f28419497f9722a3daafe3b4186f6b6457e091a3600080546001600160a01b0319166001600160a01b0392909216919091179055565b3390565b612add80610aa083390190565b600082601f8301126104ce578081fd5b813567ffffffffffffffff8111156104e4578182fd5b60208082026104f4828201610a78565b8381529350818401858301828701840188101561051057600080fd5b600092505b84831015610533578035825260019290920191908301908301610515565b505050505092915050565b600082601f83011261054e578081fd5b813567ffffffffffffffff811115610564578182fd5b610577601f8201601f1916602001610a78565b915080825283602082850101111561058e57600080fd5b8060208401602084013760009082016020015292915050565b6000604082840312156105b8578081fd5b6105c26040610a78565b9050813567ffffffffffffffff808211156105dc57600080fd5b6105e88583860161053e565b835260208401359150808211156105fe57600080fd5b5061060b8482850161053e565b60208301525092915050565b600060208284031215610628578081fd5b81356001600160a01b038116811461063e578182fd5b9392505050565b600060208284031215610656578081fd5b8135801515811461063e578182fd5b600080600080600080600060e0888a03121561067f578283fd5b873567ffffffffffffffff80821115610696578485fd5b6106a28b838c0161053e565b985060208a01359150808211156106b7578485fd5b6106c38b838c0161053e565b975060408a01359150808211156106d8578485fd5b6106e48b838c0161053e565b965060608a0135955060808a0135915080821115610700578485fd5b61070c8b838c016104be565b945060a08a0135915080821115610721578384fd5b61072d8b838c016104be565b935060c08a0135915080821115610742578283fd5b5061074f8a828b016105a7565b91505092959891949750929550565b60006020828403121561076f578081fd5b5035919050565b6000815180845260208085019450808401835b838110156107a557815187529582019590820190600101610789565b509495945050505050565b60008151808452815b818110156107d5576020818501810151868301820152016107b9565b818111156107e65782602083870101525b50601f01601f19169290920160200192915050565b90815260200190565b6001600160a01b0391909116815260200190565b901515815260200190565b600060c0825261083660c08301896107b0565b828103602084015261084881896107b0565b9050828103604084015261085c81886107b0565b6001600160a01b0396871660608501529490951660808301525060a00152949350505050565b60006101008083526108968184018c6107b0565b905082810360208401526108aa818b6107b0565b905082810360408401526108be818a6107b0565b6001600160a01b03891660608501526080840188905283810360a085015290506108e88187610776565b905082810360c08401526108fc8186610776565b905082810360e084015283516040825261091960408301826107b0565b90506020850151828203602084015261093282826107b0565b9d9c50505050505050505050505050565b60208082526026908201527f4f776e61626c653a206e6577206f776e657220697320746865207a65726f206160408201526564647265737360d01b606082015260800190565b6020808252603c908201527f6372656174654261636b6f3a206c6576656c20616d6f756e747320616e64206e60408201527f756d626572206f66206c6576656c7320646f206e6f74206d6174636800000000606082015260800190565b6020808252818101527f4f776e61626c653a2063616c6c6572206973206e6f7420746865206f776e6572604082015260600190565b6020808252603c908201527f6372656174654261636b6f3a206c6576656c207265776172647320616e64206e60408201527f756d626572206f66206c6576656c7320646f206e6f74206d6174636800000000606082015260800190565b60405181810167ffffffffffffffff81118282101715610a9757600080fd5b60405291905056fe608060405234801561001057600080fd5b50600b80546001600160a01b03191633179055612aab806100326000396000f3fe60806040526004361061020f5760003560e01c806395d89b4111610118578063c45a0155116100a0578063dd290cae1161006f578063dd290cae146105c8578063dd62ed3e146105dd578063ebd79a77146105fd578063eebd91b914610612578063f3c901d0146106275761020f565b8063c45a01551461056b578063c853663914610580578063ca189370146105a0578063d8ba83d5146105b55761020f565b8063a9059cbb116100e7578063a9059cbb146104e1578063b4550a5914610501578063b88a802f14610521578063b924956f14610536578063bce03707146105565761020f565b806395d89b41146104775780639e0796d01461048c578063a230c524146104a1578063a457c2d7146104c15761020f565b8063313ce5671161019b57806370a082311161016a57806370a08231146103ed57806376f92b8a1461040d5780637f4a67471461042d5780638b73a46b146104425780639127cc69146104575761020f565b8063313ce5671461034e578063395093511461037057806344622604146103905780635f1231ea146103bd5761020f565b80631191be70116101e25780631191be70146102b157806318160ddd146102c657806323b872dd146102e857806326c0aba214610308578063304e8de8146103375761020f565b806301f4c3aa1461021457806302d05d3f1461024057806306fdde0314610262578063095ea7b314610284575b600080fd5b34801561022057600080fd5b5061022961063c565b604051610237929190612455565b60405180910390f35b34801561024c57600080fd5b5061025561076c565b60405161023791906123e8565b34801561026e57600080fd5b5061027761077b565b6040516102379190612442565b34801561029057600080fd5b506102a461029f3660046121d0565b610809565b6040516102379190612437565b3480156102bd57600080fd5b50610277610827565b3480156102d257600080fd5b506102db610882565b6040516102379190612996565b3480156102f457600080fd5b506102a4610303366004612190565b610888565b34801561031457600080fd5b50610328610323366004612361565b61090f565b6040516102379392919061299f565b34801561034357600080fd5b5061034c61093f565b005b34801561035a57600080fd5b50610363610b64565b60405161023791906129b5565b34801561037c57600080fd5b506102a461038b3660046121d0565b610b69565b34801561039c57600080fd5b506103a5610bb7565b6040516102379c9b9a99989796959493929190612483565b3480156103c957600080fd5b506103dd6103d836600461213c565b61100d565b6040516102379493929190612963565b3480156103f957600080fd5b506102db61040836600461213c565b61114c565b34801561041957600080fd5b5061034c61042836600461221b565b611167565b34801561043957600080fd5b506102db6111a8565b34801561044e57600080fd5b506102db6111af565b34801561046357600080fd5b5061034c61047236600461213c565b611205565b34801561048357600080fd5b506102776112b4565b34801561049857600080fd5b506102db61130f565b3480156104ad57600080fd5b506102a46104bc36600461213c565b611315565b3480156104cd57600080fd5b506102a46104dc3660046121d0565b611335565b3480156104ed57600080fd5b506102a46104fc3660046121d0565b61139d565b34801561050d57600080fd5b5061034c61051c36600461221b565b6113b1565b34801561052d57600080fd5b5061034c6113ee565b34801561054257600080fd5b5061034c610551366004612256565b6113f8565b34801561056257600080fd5b506102db611585565b34801561057757600080fd5b5061025561159d565b34801561058c57600080fd5b5061032861059b36600461213c565b6115ac565b3480156105ac57600080fd5b506102a46115cd565b61034c6105c3366004612379565b61167c565b3480156105d457600080fd5b506102db6118d7565b3480156105e957600080fd5b506102db6105f8366004612158565b6118dd565b34801561060957600080fd5b506102db611908565b34801561061e57600080fd5b5061034c611961565b34801561063357600080fd5b506102db611a83565b600c8054604080516020601f600260001961010060018816150201909516949094049384018190048102820181019092528281529183918301828280156106c45780601f10610699576101008083540402835291602001916106c4565b820191906000526020600020905b8154815290600101906020018083116106a757829003601f168201915b505050505090806001018054600181600116156101000203166002900480601f0160208091040260200160405190810160405280929190818152602001828054600181600116156101000203166002900480156107625780601f1061073757610100808354040283529160200191610762565b820191906000526020600020905b81548152906001019060200180831161074557829003601f168201915b5050505050905082565b600a546001600160a01b031681565b6003805460408051602060026001851615610100026000190190941693909304601f810184900484028201840190925281815292918301828280156108015780601f106107d657610100808354040283529160200191610801565b820191906000526020600020905b8154815290600101906020018083116107e457829003601f168201915b505050505081565b600061081d610816611a89565b8484611a8d565b5060015b92915050565b6007805460408051602060026001851615610100026000190190941693909304601f810184900484028201840190925281815292918301828280156108015780601f106107d657610100808354040283529160200191610801565b60025490565b6000610895848484611b41565b610905846108a1611a89565b61090085604051806060016040528060288152602001612a29602891396001600160a01b038a166000908152600160205260408120906108df611a89565b6001600160a01b031681526020810191909152604001600020549190611c56565b611a8d565b5060019392505050565b6005818154811061091c57fe5b600091825260209091206003909102018054600182015460029092015490925083565b600b54604080516375f12b2160e01b815290516000926001600160a01b0316916375f12b21916004808301926020929190829003018186803b15801561098457600080fd5b505afa158015610998573d6000803e3d6000fd5b505050506040513d601f19601f820116820180604052508101906109bc91906121fb565b905080156109e55760405162461bcd60e51b81526004016109dc90612602565b60405180910390fd5b600a546001600160a01b03163314610a0f5760405162461bcd60e51b81526004016109dc90612705565b600854610a1f906202a300611c82565b431015610a3e5760405162461bcd60e51b81526004016109dc90612670565b6000805b600554811015610a9657600060058281548110610a5b57fe5b60009182526020822060039091020180546002820154919350610a7e9190611cae565b9050610a8a8482611c82565b93505050600101610a42565b50600954610aa5906001611c82565b60095543600855600a546040516000916001600160a01b0316908390610aca906123e5565b60006040518083038185875af1925050503d8060008114610b07576040519150601f19603f3d011682016040523d82523d6000602084013e610b0c565b606091505b5050905080610b1a57600080fd5b600a546040517fe00d7a41518756b6ea672642140dba88a5f284d2f56814a8a868cc0014cf0fd291610b57916001600160a01b03909116906123e8565b60405180910390a1505050565b601281565b600061081d610b76611a89565b846109008560016000610b87611a89565b6001600160a01b03908116825260208083019390935260409182016000908120918c168152925290205490611c82565b6060806060600080600080600080600080610bd0611f0a565b600854600090610be3906202a300611c82565b90506000805b600554811015610c3d57600060058281548110610c0257fe5b60009182526020822060039091020180546002820154919350610c259190611cae565b9050610c318482611c82565b93505050600101610be9565b506005546000805b600554811015610c9057600060058281548110610c5e57fe5b90600052602060002090600302019050610c85816002015484611c8290919063ffffffff16565b925050600101610c45565b50600760036004600a60009054906101000a90046001600160a01b03166008546202a3006009548a8a8a8a600c8b8054600181600116156101000203166002900480601f016020809104026020016040519081016040528092919081815260200182805460018160011615610100020316600290048015610d525780601f10610d2757610100808354040283529160200191610d52565b820191906000526020600020905b815481529060010190602001808311610d3557829003601f168201915b50505050509b508a8054600181600116156101000203166002900480601f016020809104026020016040519081016040528092919081815260200182805460018160011615610100020316600290048015610dee5780601f10610dc357610100808354040283529160200191610dee565b820191906000526020600020905b815481529060010190602001808311610dd157829003601f168201915b50505050509a50898054600181600116156101000203166002900480601f016020809104026020016040519081016040528092919081815260200182805460018160011615610100020316600290048015610e8a5780601f10610e5f57610100808354040283529160200191610e8a565b820191906000526020600020905b815481529060010190602001808311610e6d57829003601f168201915b5050505050995080604051806040016040529081600082018054600181600116156101000203166002900480601f016020809104026020016040519081016040528092919081815260200182805460018160011615610100020316600290048015610f365780601f10610f0b57610100808354040283529160200191610f36565b820191906000526020600020905b815481529060010190602001808311610f1957829003601f168201915b50505050508152602001600182018054600181600116156101000203166002900480601f016020809104026020016040519081016040528092919081815260200182805460018160011615610100020316600290048015610fd85780601f10610fad57610100808354040283529160200191610fd8565b820191906000526020600020905b815481529060010190602001808311610fbb57829003601f168201915b50505050508152505090509f509f509f509f509f509f509f509f509f509f509f509f5050505050909192939495969798999a9b565b611015611f24565b6001600160a01b03821660009081526006602052604081208054600580548493849390928492909190811061104657fe5b9060005260206000209060030201905060008060095484600201541415611082578254600185015461107791611cae565b91506000905061110d565b600061109d8560020154600954611ce890919063ffffffff16565b9050600085600101548210156110b45750806110da565b85600101548214156110c75750806110da565b85600101548211156110da575060018501545b60018501546110ea908290611cae565b85546001880154919450611108916111029084611ce8565b90611cae565b935050505b60006111188a61114c565b60408051606081018252875481526001880154602082015260029097015490870152949a9299509097509295509350505050565b6001600160a01b031660009081526020819052604090205490565b600a546001600160a01b031633146111915760405162461bcd60e51b81526004016109dc90612705565b80516111a490600d906020840190611f45565b5050565b6202a30081565b600080805b6005548110156111ff576000600582815481106111cd57fe5b906000526020600020906003020190506111f4816002015484611c8290919063ffffffff16565b9250506001016111b4565b50905090565b600a546001600160a01b0316331461122f5760405162461bcd60e51b81526004016109dc90612705565b6001600160a01b0381166112555760405162461bcd60e51b81526004016109dc906126b3565b600a80546001600160a01b038381166001600160a01b03198316179092556040519116907f949ac028d12de8dcf4890415d83d29e6dccd033c31dc7a859a9a85fab5a66d77906112a8908390859061241d565b60405180910390a15050565b6004805460408051602060026001851615610100026000190190941693909304601f810184900484028201840190925281815292918301828280156108015780601f106107d657610100808354040283529160200191610801565b60085481565b6001600160a01b0316600090815260066020526040902060010154151590565b600061081d611342611a89565b8461090085604051806060016040528060258152602001612a51602591396001600061136c611a89565b6001600160a01b03908116825260208083019390935260409182016000908120918d16815292529020549190611c56565b600061081d6113aa611a89565b8484611b41565b600a546001600160a01b031633146113db5760405162461bcd60e51b81526004016109dc90612705565b80516111a490600c906020840190611f45565b6113f6611d2a565b565b600b546001600160a01b031633146114225760405162461bcd60e51b81526004016109dc9061274b565b838351146114425760405162461bcd60e51b81526004016109dc906128a1565b838251146114625760405162461bcd60e51b81526004016109dc90612800565b87516114759060079060208b0190611f45565b5086516114899060039060208a0190611f45565b50855161149d906004906020890190611f45565b50600a80546001600160a01b0319166001600160a01b03871617905560005b8481101561154057600560405180606001604052808684815181106114dd57fe5b602002602001015181526020018584815181106114f657fe5b6020908102919091018101518252600091810182905283546001818101865594835291819020835160039093020191825582015181840155604090910151600290910155016114bc565b5043600855805180518291600c9161155f918391602090910190611f45565b5060208281015180516115789260018501920190611f45565b5050505050505050505050565b600854600090611598906202a300611c82565b905090565b600b546001600160a01b031681565b60066020526000908152604090208054600182015460029092015490919083565b600080600b60009054906101000a90046001600160a01b03166001600160a01b03166375f12b216040518163ffffffff1660e01b815260040160206040518083038186803b15801561161e57600080fd5b505afa158015611632573d6000803e3d6000fd5b505050506040513d601f19601f8201168201806040525081019061165691906121fb565b600854909150611669906202a300611c82565b4310158015611676575080155b91505090565b600b54604080516375f12b2160e01b815290516000926001600160a01b0316916375f12b21916004808301926020929190829003018186803b1580156116c157600080fd5b505afa1580156116d5573d6000803e3d6000fd5b505050506040513d601f19601f820116820180604052508101906116f991906121fb565b905080156117195760405162461bcd60e51b81526004016109dc90612602565b600a546001600160a01b031633141561173157600080fd5b600061175b6005848154811061174357fe5b60009182526020909120600390910201548590611cae565b90508034101561177d5760405162461bcd60e51b81526004016109dc90612589565b60006005848154811061178c57fe5b6000918252602080832033845260069091526040909220600181015460039092029092019250156117dc57805485146117d75760405162461bcd60e51b81526004016109dc906128fe565b6117ff565b8481556009546002808301919091558201546117f9906001611c82565b60028301555b600181015461180e9087611c82565b600182015561181b611d2a565b60006118273485611ce8565b90506000336001600160a01b031682604051611842906123e5565b60006040518083038185875af1925050503d806000811461187f576040519150601f19603f3d011682016040523d82523d6000602084013e611884565b606091505b505090508061189257600080fd5b7f2f80e7bda7e395d9b636511eaecfe6ba23867972fa906c6c4bbd10c3a393c7bb3389896040516118c5939291906123fc565b60405180910390a15050505050505050565b60095481565b6001600160a01b03918216600090815260016020908152604080832093909416825291909152205490565b600080805b6005548110156111ff5760006005828154811061192657fe5b600091825260208220600390910201805460028201549193506119499190611cae565b90506119558482611c82565b9350505060010161190d565b336000908152600660205260408120805460058054929392909190811061198457fe5b9060005260206000209060030201905061199c611d2a565b6001820154156111a457805460018301546000916119ba9190611cae565b9050600083600101819055506119de60018360020154611ce890919063ffffffff16565b6002830155604051600090339083906119f6906123e5565b60006040518083038185875af1925050503d8060008114611a33576040519150601f19603f3d011682016040523d82523d6000602084013e611a38565b606091505b5050905080611a4657600080fd5b7f0891f7755036d642da704fd5ae4c017bf0ba3e03a13420a0466ccb31c41bfc4033604051611a7591906123e8565b60405180910390a150505050565b60055490565b3390565b6001600160a01b038316611ab35760405162461bcd60e51b81526004016109dc9061285d565b6001600160a01b038216611ad95760405162461bcd60e51b81526004016109dc906125c0565b6001600160a01b0380841660008181526001602090815260408083209487168084529490915290819020849055517f8c5be1e5ebec7d5bd14f71427d1e84f3dd0314c0f7b2291e5b200ac8c7c3b92590611b34908590612996565b60405180910390a3505050565b6001600160a01b038316611b675760405162461bcd60e51b81526004016109dc906127bb565b6001600160a01b038216611b8d5760405162461bcd60e51b81526004016109dc90612546565b611b98838383611e45565b611bd581604051806060016040528060268152602001612a03602691396001600160a01b0386166000908152602081905260409020549190611c56565b6001600160a01b038085166000908152602081905260408082209390935590841681522054611c049082611c82565b6001600160a01b0380841660008181526020819052604090819020939093559151908516907fddf252ad1be2c89b69c2b068fc378daa952ba7f163c4a11628f55a4df523b3ef90611b34908590612996565b60008184841115611c7a5760405162461bcd60e51b81526004016109dc9190612442565b505050900390565b600082820183811015611ca75760405162461bcd60e51b81526004016109dc90612639565b9392505050565b600082611cbd57506000610821565b82820282848281611cca57fe5b0414611ca75760405162461bcd60e51b81526004016109dc9061277a565b6000611ca783836040518060400160405280601e81526020017f536166654d6174683a207375627472616374696f6e206f766572666c6f770000815250611c56565b3360009081526006602052604081208054600580549293929091908110611d4d57fe5b9060005260206000209060030201905060095482600201541415611d725750506113f6565b6000611d8d8360020154600954611ce890919063ffffffff16565b905060008360010154821015611db9575060018301548190611daf9082611ce8565b6001850155611e1c565b8360010154821415611dec5750600060018085019190915560028301548291611de29190611ce8565b6002840155611e1c565b8360010154821115611e1c575060018084018054600090915560028401549091611e169190611ce8565b60028401555b60095460028501556001830154611e3f903390611e3a908490611cae565b611e4a565b50505050565b505050565b6001600160a01b038216611e705760405162461bcd60e51b81526004016109dc9061292c565b611e7c60008383611e45565b600254611e899082611c82565b6002556001600160a01b038216600090815260208190526040902054611eaf9082611c82565b6001600160a01b0383166000818152602081905260408082209390935591519091907fddf252ad1be2c89b69c2b068fc378daa952ba7f163c4a11628f55a4df523b3ef90611efe908590612996565b60405180910390a35050565b604051806040016040528060608152602001606081525090565b60405180606001604052806000815260200160008152602001600081525090565b828054600181600116156101000203166002900490600052602060002090601f016020900481019282601f10611f8657805160ff1916838001178555611fb3565b82800160010185558215611fb3579182015b82811115611fb3578251825591602001919060010190611f98565b50611fbf929150611fc3565b5090565b5b80821115611fbf5760008155600101611fc4565b8035610821816129ea565b600082601f830112611ff3578081fd5b813567ffffffffffffffff811115612009578182fd5b60208082026120198282016129c3565b8381529350818401858301828701840188101561203557600080fd5b600092505b8483101561205857803582526001929092019190830190830161203a565b505050505092915050565b600082601f830112612073578081fd5b813567ffffffffffffffff811115612089578182fd5b61209c601f8201601f19166020016129c3565b91508082528360208285010111156120b357600080fd5b8060208401602084013760009082016020015292915050565b6000604082840312156120dd578081fd5b6120e760406129c3565b9050813567ffffffffffffffff8082111561210157600080fd5b61210d85838601612063565b8352602084013591508082111561212357600080fd5b5061213084828501612063565b60208301525092915050565b60006020828403121561214d578081fd5b8135611ca7816129ea565b6000806040838503121561216a578081fd5b8235612175816129ea565b91506020830135612185816129ea565b809150509250929050565b6000806000606084860312156121a4578081fd5b83356121af816129ea565b925060208401356121bf816129ea565b929592945050506040919091013590565b600080604083850312156121e2578182fd5b82356121ed816129ea565b946020939093013593505050565b60006020828403121561220c578081fd5b81518015158114611ca7578182fd5b60006020828403121561222c578081fd5b813567ffffffffffffffff811115612242578182fd5b61224e84828501612063565b949350505050565b600080600080600080600080610100898b031215612272578384fd5b883567ffffffffffffffff80821115612289578586fd5b6122958c838d01612063565b995060208b01359150808211156122aa578586fd5b6122b68c838d01612063565b985060408b01359150808211156122cb578586fd5b6122d78c838d01612063565b97506122e68c60608d01611fd8565b965060808b0135955060a08b0135915080821115612302578485fd5b61230e8c838d01611fe3565b945060c08b0135915080821115612323578384fd5b61232f8c838d01611fe3565b935060e08b0135915080821115612344578283fd5b506123518b828c016120cc565b9150509295985092959890939650565b600060208284031215612372578081fd5b5035919050565b6000806040838503121561238b578182fd5b50508035926020909101359150565b60008151808452815b818110156123bf576020818501810151868301820152016123a3565b818111156123d05782602083870101525b50601f01601f19169290920160200192915050565b90565b6001600160a01b0391909116815260200190565b6001600160a01b039390931683526020830191909152604082015260600190565b6001600160a01b0392831681529116602082015260400190565b901515815260200190565b600060208252611ca7602083018461239a565b600060408252612468604083018561239a565b828103602084015261247a818561239a565b95945050505050565b6000610180825261249861018083018f61239a565b82810360208401526124aa818f61239a565b905082810360408401526124be818e61239a565b905060018060a01b038c1660608401528a60808401528960a08401528860c08401528760e0840152866101008401528561012084015284610140840152828103610160840152835160408252612517604083018261239a565b905060208501518282036020840152612530828261239a565b93505050509d9c50505050505050505050505050565b60208082526023908201527f45524332303a207472616e7366657220746f20746865207a65726f206164647260408201526265737360e81b606082015260800190565b60208082526019908201527f61646446756e643a204e6f7420656e6f7567682076616c756500000000000000604082015260600190565b60208082526022908201527f45524332303a20617070726f766520746f20746865207a65726f206164647265604082015261737360f01b606082015260800190565b6020808252601f908201527f73746f70496e456d657267656e63793a20656d657267656e63792073746f7000604082015260600190565b6020808252601b908201527f536166654d6174683a206164646974696f6e206f766572666c6f770000000000604082015260600190565b60208082526023908201527f63726561746f72576974686472617746756e643a20726f756e64206e6f7420646040820152626f6e6560e81b606082015260800190565b60208082526032908201527f73657443726561746f72416464726573733a206e65772063726561746f7220696040820152717320746865207a65726f206164647265737360701b606082015260800190565b60208082526026908201527f6f6e6c7943726561746f723a2063616c6c6572206973206e6f742074686520636040820152653932b0ba37b960d11b606082015260800190565b60208082526015908201527434b734ba34b0b634bd329d103337b93134b23232b760591b604082015260600190565b60208082526021908201527f536166654d6174683a206d756c7469706c69636174696f6e206f766572666c6f6040820152607760f81b606082015260800190565b60208082526025908201527f45524332303a207472616e736665722066726f6d20746865207a65726f206164604082015264647265737360d81b606082015260800190565b6020808252603b908201527f696e697469616c697a653a206c6576656c207265776172647320616e64206e7560408201527f6d626572206f66206c6576656c7320646f206e6f74206d617463680000000000606082015260800190565b60208082526024908201527f45524332303a20617070726f76652066726f6d20746865207a65726f206164646040820152637265737360e01b606082015260800190565b6020808252603b908201527f696e697469616c697a653a206c6576656c20616d6f756e747320616e64206e7560408201527f6d626572206f66206c6576656c7320646f206e6f74206d617463680000000000606082015260800190565b602080825260149082015273185919119d5b990e881ddc9bdb99c81b195d995b60621b604082015260600190565b6020808252601f908201527f45524332303a206d696e7420746f20746865207a65726f206164647265737300604082015260600190565b8451815260208086015190820152604094850151948101949094526060840192909252608083015260a082015260c00190565b90815260200190565b9283526020830191909152604082015260600190565b60ff91909116815260200190565b60405181810167ffffffffffffffff811182821017156129e257600080fd5b604052919050565b6001600160a01b03811681146129ff57600080fd5b5056fe45524332303a207472616e7366657220616d6f756e7420657863656564732062616c616e636545524332303a207472616e7366657220616d6f756e74206578636565647320616c6c6f77616e636545524332303a2064656372656173656420616c6c6f77616e63652062656c6f77207a65726fa2646970667358221220d11374df63f0e7139689f9a85ad19d2cd4a3ea038b151f4a8e8595ae714ddfc064736f6c634300060c0033a264697066735822122016aeb1f3fcddaed78590aa1e0885c8f19d76da3a45e3f3867b27d633e89f58ad64736f6c634300060c0033",
  "immutableReferences": {},
  "source": "// SPDX-License-Identifier: MIT\npragma solidity 0.6.12;\npragma experimental ABIEncoderV2;\n\nimport \"@openzeppelin/contracts/access/Ownable.sol\";\nimport \"./Backo.sol\";\nimport \"./IBacko.sol\";\n\ncontract BackoFactory is Ownable {\n\n  /// Returns the address of the backo contract of the given id\n  address[] public allBackos;\n  /// Returns true if an emergency stop is ongoing, false otherwise\n  bool public stopped = false;\n\n  /// @notice Event of which a backo has been created\n  event BackoCreated(string _backoName, string _name, string _symbol, address _creator, address backo, uint256);\n  /// @notice Event of which the admin has toggled the emergency stop\n  event StoppedSet(bool _stopped);\n\n  /// @notice Creates a backo contract, deploys it and returns the address of the backo\n  function createBacko(\n    string memory _backoName,\n    string memory _name,\n    string memory _symbol,\n    uint256 _numberOfLevels,\n    uint256[] memory _levelAmounts,\n    uint256[] memory _levelRewards,\n    IBacko.IpfsDataHashes memory _ipfsDataHashes\n  ) external returns (address backo) {\n\n    require(_levelAmounts.length == _numberOfLevels, \"createBacko: level amounts and number of levels do not match\");\n    require(_levelRewards.length == _numberOfLevels, \"createBacko: level rewards and number of levels do not match\");\n\n    bytes memory bytecode = type(Backo).creationCode;\n    bytes32 salt = keccak256(abi.encodePacked(allBackos.length));\n    assembly {\n      backo := create2(0, add(bytecode, 32), mload(bytecode), salt)\n    }\n    IBacko(backo).initialize(\n      _backoName,\n      _name,\n      _symbol,\n      msg.sender,\n      _numberOfLevels,\n      _levelAmounts,\n      _levelRewards,\n      _ipfsDataHashes\n    );\n    allBackos.push(backo);\n    emit BackoCreated(_backoName, _name, _symbol, msg.sender, backo, allBackos.length);\n  }\n\n  /// @notice Triggers emergency stop if `_stopped` is true, undo emergency stop otherwise\n  function setStopped(bool _stopped) external onlyOwner {\n    stopped = _stopped;\n    emit StoppedSet(_stopped);\n  }\n\n}",
  "sourcePath": "/Users/faizwong/Documents/Consensys/Practice/backo/src/contracts/BackoFactory.sol",
  "compiler": {
    "name": "solc",
    "version": "0.6.12+commit.27d51765.Emscripten.clang"
  },
  "schemaVersion": "3.2.4",
  "updatedAt": "2020-11-26T02:02:43.809Z",
  "networkType": "ethereum",
  "devdoc": {
    "kind": "dev",
    "methods": {
      "owner()": {
        "details": "Returns the address of the current owner."
      },
      "renounceOwnership()": {
        "details": "Leaves the contract without owner. It will not be possible to call `onlyOwner` functions anymore. Can only be called by the current owner. NOTE: Renouncing ownership will leave the contract without an owner, thereby removing any functionality that is only available to the owner."
      },
      "transferOwnership(address)": {
        "details": "Transfers ownership of the contract to a new account (`newOwner`). Can only be called by the current owner."
      }
    },
    "version": 1
  },
  "userdoc": {
    "events": {
      "BackoCreated(string,string,string,address,address,uint256)": {
        "notice": "Event of which a backo has been created"
      },
      "StoppedSet(bool)": {
        "notice": "Event of which the admin has toggled the emergency stop"
      }
    },
    "kind": "user",
    "methods": {
      "allBackos(uint256)": {
        "notice": "Returns the address of the backo contract of the given id"
      },
      "createBacko(string,string,string,uint256,uint256[],uint256[],(string,string))": {
        "notice": "Creates a backo contract, deploys it and returns the address of the backo"
      },
      "setStopped(bool)": {
        "notice": "Triggers emergency stop if `_stopped` is true, undo emergency stop otherwise"
      },
      "stopped()": {
        "notice": "Returns true if an emergency stop is ongoing, false otherwise"
      }
    },
    "version": 1
  }
}